:1000000012C02CC02BC02AC029C028C027C026C0BF
:1000100025C05AC223C022C021C020C01FC01EC09C
:100020001DC01CC01BC011241FBECFE5D4E0DEBF25
:10003000CDBF10E0A0E6B0E0E0EFFDE002C005902B
:100040000D92AA3CB107D9F710E0AAECB0E001C0CC
:100050001D92AE3CB107E1F718D4C8C6D1CF00005D
:10006000929A92B3807F9F70982B92BB8AE08A9578
:10007000F1F7929885E08A95F1F708951F93182F6C
:10008000EEDF812F8295807FEADF85E88A95F1F7A0
:100090001F910895805DF2DF0895939895ED9A95EC
:1000A000F1F7ECDF939A84E090E10197F1F708957E
:1000B00081E0F3DF089582E0F0DF089580ECEDDF6A
:1000C00008950F931F93939888E592E00197F1F7B5
:1000D000929A80E49CE90197F1F780E3C0DF00E3A6
:1000E00015E7C8010197F1F780E3B9DFC80101976F
:1000F000F1F780E3B4DFC8010197F1F788E2BEDFD2
:1001000000ED17E0C8010197F1F788E2B7DFC801F9
:100110000197F1F788E0B2DFC8010197F1F78CE0B1
:10012000ADDFC8010197F1F786E0A8DF80EA9FE024
:100130000197F1F7939A1F910F9108950F931F93D1
:10014000CF93DF938C01C0E0D0E005C097DF21960C
:10015000C830D10531F0F801EC0FFD1F80818823F4
:10016000A9F7DF91CF911F910F9108954FE057E2CA
:1001700084E690E0369A3699FECF24B135B1241743
:10018000350721F0019711F0A901F4CF40E020E0FC
:1001900030E0369A3699FECF84B195B1280F391FD9
:1001A0004F5F4032B1F7C90108958F929F92AF928D
:1001B000BF92CF92DF92EF92FF920F931F93CF9354
:1001C000DF93873008F05BC0082F10E0F801E15999
:1001D000FF4F808188BB87BBF801EE56FF4FE0815F
:1001E000EE2329F430EEC32E3FE7D32E08C0E0649F
:1001F000E7B980ED97E00197F1F7B8DF6C0180E493
:1002000087B980E197E20197F1F7B0DFEC0117BA07
:1002100018BA8FE3C03FD80748F0C05FDF43D093E0
:10022000CD00C093CC00C051D04C08C080EF9FE3FC
:100230008C1B9D0B9093CD008093CC00CC16DD06DB
:1002400009F488C0BE0180E090E076D4000F111F51
:10025000000F111F0A581F4FF80120813181428180
:10026000538120D57B018C01CC1ADD0AB60180E0D8
:1002700090E062D49B01AC01C801B70174C081E475
:1002800088BB87BB87B900ED17E0C8010197F1F77C
:100290006DDFEC0182E487B9C8010197F1F766DFF1
:1002A0004C0180E487B9C8010197F1F75FDFA0E056
:1002B000B0E0BC01CD0140D45B016C0117BA18BAA3
:1002C00020E030EC4FE756E4E9D488233CF0C60147
:1002D000B50120E030EC4FE756E406C060E070EC7A
:1002E0008FE796E4A60195012AD3FAD37093CD0047
:1002F0006093CC00BE0180E090E01ED4A601950181
:100300001ED320918E0030918F004091900050912B
:1003100091007ED37B018C01B40180E090E00CD48D
:10032000A60195010CD320918A0030918B00409159
:100330008C0050918D006CD39B01AC01C801B701BA
:10034000FFD27B018C0120E030E040E050E05CD344
:10035000882329F4E0E579EA8BEA6CE407C0C6015A
:10036000B501A801970154D3E62F692F2E2F372FFF
:10037000482F562FB901CA01DF91CF911F910F91DC
:10038000FF90EF90DF90CF90BF90AF909F908F90B5
:1003900008952F923F924F925F926F927F928F9229
:1003A0009F92AF92BF92CF92DF92EF92FF920F9304
:1003B0001F93DF93CF93CDB7DEB72B970FB6F8948B
:1003C000DEBF0FBECDBF6A837B838C839D8320E815
:1003D0002E8386E98F8398E19887EBE4E987AA2446
:1003E000BB24650141E0642E712C812C912CF1E03D
:1003F000F9834AC0EA85FB852081318140E050E0E5
:10040000C401B301B2D41B012C0198D32A813B81D2
:100410004C815D8194D27B018C0120E030E040E092
:1004200050E0F2D288234CF460E070E080E090E08D
:10043000A801970184D27B018C01C801B7012E81EC
:100440003F8148855985E0D2882344F4D801C7010B
:10045000EE829F83A887B987620151018A859B85B7
:1004600002969B878A87895C904021F6F981FF5F1D
:10047000F983F73071F0C401B3012AE030E040E0C5
:1004800050E073D43B014C0189E990E09B878A8757
:10049000B1CFB501C6012B960FB6F894DEBF0FBEE3
:1004A000CDBFCF91DF911F910F91FF90EF90DF9023
:1004B000CF90BF90AF909F908F907F906F905F9004
:1004C0004F903F902F9008951F920F920FB60F926A
:1004D00011248F939F938091CA009091CB00892B18
:1004E00051F08091CA009091CB0001979093CB007E
:1004F0008093CA0001C090989F918F910F900FBE7A
:100500000F901F9018952F923F924F925F926F928B
:100510007F928F929F92AF92BF92CF92DF92EF9293
:10052000FF920F931F93DF93CF9300D000D0CDB7EE
:10053000DEB75B016C0120E030E040E251E464D2C0
:1005400087FD09C0EA2D7B2D8C2D6D2D21E030E03B
:100550003A8329830DC0C601B50120E030E040E2B6
:1005600051E4A0D3E62F692FAAE0B0E0BA83A983B3
:100570002E2F372F482F562FB901CA010ADF962E8A
:10058000872E782E692EC601B50120E836E948E1AC
:100590005BE43AD288230CF04DC1E92CF82C072DEE
:1005A000162D88E691E09093CB008093CA00B0E4CA
:1005B000EB16B2E4FB06BFE00B07B0E01B07C8F088
:1005C000C801B70120E432E44FE050E0EDD3490127
:1005D000C801B70120E432E44FE050E0E5D320EA5F
:1005E00036E841E050E0E0D33C832B830DE4502E0D
:1005F00040C0E8EEEE16E3E0FE06E0E00E07E0E0C5
:100600001E07C8F0C801B70128EE33E040E050E013
:10061000CBD34901C801B70128EE33E040E050E0F8
:10062000C3D324E630E040E050E0BED33C832B83CC
:100630001BE4512E1EC029813A812130310531F44D
:100640004701B2E55B2E1C821B8213C0C801B701B3
:100650002AE030E040E050E0A7D34901C801B701EB
:100660002AE030E040E050E09FD37C836B83A2E53A
:100670005A2E21DD80E202DD3401882499242224CF
:100680002394F4E6EF2EF12C012D112D4424C40106
:10069000B301A801970188D3322EC401B301A80188
:1006A000970182D3AC01CB01DA013C014D01C801B5
:1006B000B7012AE030E040E050E076D3C901DA012A
:1006C0007C018D01332011F4222021F4832DE2DC02
:1006D000222402C080E2D2DC439433E04316B9F610
:1006E000852DCCDC8B819C81892B19F08B81D2DC10
:1006F00002C080E2C3DCE2DCC601B50120E030E0EC
:1007000040E251E481D188237CF4C601B50120E0A8
:1007100030E048EC52E4C6D2E3D1562E672E782E54
:10072000892EE5E04E2E21C0C601B50120E030E063
:1007300048EC52E469D188237CF4C601B50120E07D
:1007400030E040E251E4AED2CBD1562E672E782E67
:10075000892E76E0472E09C0C601B501C1D1562EBB
:10076000672E782E892E67E0462ECC24C39450E461
:10077000E52E52E4F52E5FE0052F112DDD24222415
:100780003324A42CBB240894A108B108922C421451
:1007900011F48CE273DC652D762D872D982DA80140
:1007A000970102D3222329F4CC2019F02A143B0408
:1007B00064F09D2C939493E09D1518F0822F6ADCD1
:1007C00002C080E35BDCCC240CC0A981BA81119704
:1007D00019F0B1E0B91510F480E250DC9D2CCC2466
:1007E000C3940894211C311CE7E02E163104C1F09B
:1007F000652D762D872D982DA8019701D5D2562EDF
:10080000672E782E892EC801B7012AE030E040E03B
:1008100050E0CAD2C901DA017C018D01D92CB6CFD2
:100820008CED95E028EC30E0F9013197F1F7019774
:10083000D9F714C08091CA009091CB00849709F435
:1008400040DC36DC80E690E079DC88E592E028EC5C
:1008500030E0F9013197F1F70197D9F70F900F9038
:100860000F900F90CF91DF911F910F91FF90EF901C
:10087000DF90CF90BF90AF909F908F907F906F90C0
:100880005F904F903F902F900895DF92EF92FF92EC
:100890000F931F93CF93DF938FE787BB14BA8FEF2C
:1008A00081BB909A86E886B910BE8EE487B913BEE4
:1008B00085E083BF81E089BF88E290E09093CB0020
:1008C0008093CA0088E691E09093CB008093CA00A1
:1008D000F8DB78944BDC875A924218F086E690E079
:1008E0002DDC44DC875A9242E0F7EBDB26EED22E79
:1008F00093EDE92E8CEBF82E0CE4CFEFDFEF10E058
:1009000011C0812F52DC2091CC003091CD00C21754
:10091000D30710F49E0104C0D62EE72EF82E092F1F
:100920001F5FE901183068F32D2D3E2D4F2D502FFC
:10093000B901CA01E8DDCFEFDFEF10E0E2CF505898
:10094000BB27AA270ED070C161D130F066D120F04C
:1009500031F49F3F11F41EF456C10EF4E095E7FB0D
:100960004CC1E92F72D180F3BA176207730784076D
:10097000950718F071F49EF58AC10EF4E0950B2EE0
:10098000BA2FA02D0B01B90190010C01CA01A001E1
:100990001124FF27591B99F0593F50F4503E68F13C
:1009A0001A16F040A22F232F342F4427585FF3CF7D
:1009B000469537952795A795F0405395C9F77EF44E
:1009C0001F16BA0B620B730B840BBAF09150A1F097
:1009D000FF0FBB1F661F771F881FC2F70EC0BA0F1D
:1009E000621F731F841F48F4879577956795B795A5
:1009F000F7959E3F08F0B3CF9395880F08F099279D
:100A0000EE0F979587950895D4D008F481E0089566
:100A10000CD00AC102D140F0F9D030F021F45F3F90
:100A200019F0EBC0511134C1EEC00FD198F39923E6
:100A3000C9F35523B1F3951B550BBB27AA276217A2
:100A40007307840738F09F5F5F4F220F331F441FE7
:100A5000AA1FA9F333D00E2E3AF0E0E830D091501F
:100A60005040E695001CCAF729D0FE2F27D0660F0C
:100A7000771F881FBB1F261737074807AB07B0E84B
:100A800009F0BB0B802DBF01FF2793585F4F2AF061
:100A90009E3F510568F0B1C0FBC05F3FECF3983E4C
:100AA000DCF3869577956795B795F7959F5FC9F7BE
:100AB000880F911D9695879597F90895E1E0660F47
:100AC000771F881FBB1F621773078407BA0720F0C0
:100AD000621B730B840BBA0BEE1F88F7E095089529
:100AE000BCD088F09F5790F0B92F9927B751A0F04C
:100AF000D1F0660F771F881F991F1AF0BA95C9F7B2
:100B000012C0B13081F0C3D0B1E00895C0C0672FEA
:100B1000782F8827B85F39F0B93FCCF38695779561
:100B20006795B395D9F73EF490958095709561954A
:100B30007F4F8F4F9F4F0895E89409C097FB3EF475
:100B400090958095709561957F4F8F4F9F4F99231A
:100B5000A9F0F92F96E9BB279395F6958795779598
:100B60006795B795F111F8CFFAF4BB0F11F460FF58
:100B70001BC06F5F7F4F8F4F9F4F16C0882311F0B0
:100B800096E911C0772321F09EE8872F762F05C0C4
:100B9000662371F096E8862F70E060E02AF09A955F
:100BA000660F771F881FDAF7880F9695879597F954
:100BB0000895990F0008550FAA0BE0E8FEEF1616EE
:100BC0001706E807F907C0F012161306E407F50741
:100BD00098F0621B730B840B950B39F40A2661F0B5
:100BE000232B242B252B21F408950A2609F4A14058
:100BF000A6958FEF811D811D089597F99F6780E865
:100C000070E060E008959FEF80EC089500240A945E
:100C10001616170618060906089500240A941216D7
:100C20001306140605060895092E0394000C11F40A
:100C3000882352F0BB0F40F4BF2B11F460FF04C0B7
:100C40006F5F7F4F8F4F9F4F089557FD9058440F10
:100C5000551F59F05F3F71F04795880F97FB991F1B
:100C600061F09F3F79F087950895121613061406D8
:100C7000551FF2CF4695F1DF08C016161706180665
:100C8000991FF1CF86957105610508940895E89440
:100C9000BB2766277727CB0197F908958ADF08F4E9
:100CA0008FEF08950BD0C0CFB1DF28F0B6DF18F07A
:100CB000952309F0A2CFA7CF1124EACFC6DFA0F376
:100CC000959FD1F3950F50E0551F629FF001729FE1
:100CD000BB27F00DB11D639FAA27F00DB11DAA1F00
:100CE000649F6627B00DA11D661F829F2227B00D4D
:100CF000A11D621F739FB00DA11D621F839FA00DD8
:100D0000611D221F749F3327A00D611D231F849F27
:100D1000600D211D822F762F6A2F11249F5750407E
:100D20008AF0E1F088234AF0EE0FFF1FBB1F661F19
:100D3000771F881F91505040A9F79E3F510570F0D2
:100D40005CCFA6CF5F3FECF3983EDCF386957795BA
:100D50006795B795F795E7959F5FC1F7FE2B880FCD
:100D6000911D9695879597F90895629FD001739F7D
:100D7000F001829FE00DF11D649FE00DF11D929F37
:100D8000F00D839FF00D749FF00D659FF00D992776
:100D9000729FB00DE11DF91F639FB00DE11DF91F9A
:100DA000BD01CF0111240895A1E21A2EAA1BBB1B7D
:100DB000FD010DC0AA1FBB1FEE1FFF1FA217B30727
:100DC000E407F50720F0A21BB30BE40BF50B661F3D
:100DD000771F881F991F1A9469F760957095809501
:100DE00090959B01AC01BD01CF010895F894FFCF10
:100DF00020202D2D2D004C6F77204261747400202F
:100E00001008040240010047064A0022A148009849
:100E100037470000AF4500004D4400001643000076
:100E2000FA42000005040302010A000B000C000D49
:100E3000000F00100012001400160018001B001E06
:100E4000002100240027002B002F00330038003E33
:0A0E50000044004B0052005B00005C
:00000001FF
