:1000000012C024C023C022C021C020C01FC01EC0F7
:100010001DC01CC01BC01AC019C018C017C016C014
:1000200015C014C013C011241FBECFE5D4E0DEBF3D
:10003000CDBF10E0A0E6B0E0EAE8F1E002C0059034
:100040000D92AC36B107D9F789D09DC0D9CF000049
:10005000929A92B3807F9F70982B92BB8AE08A9588
:10006000F1F7929885E08A95F1F708951F93182F7C
:10007000EEDF812F8295807FEADF85E88A95F1F7B0
:100080001F910895805DF2DF0895939895ED9A95FC
:10009000F1F7ECDF939A84E090E10197F1F708958E
:1000A00081E0F3DF089582E0F0DF089580ECEDDF7A
:1000B00008950F931F93939888E592E00197F1F7C5
:1000C000929A80E49CE90197F1F780E3C0DF00E3B6
:1000D00015E7C8010197F1F780E3B9DFC80101977F
:1000E000F1F780E3B4DFC8010197F1F788E2BEDFE2
:1000F00000ED17E0C8010197F1F788E2B7DFC8010A
:100100000197F1F788E0B2DFC8010197F1F78CE0C1
:10011000ADDFC8010197F1F786E0A8DF80EA9FE034
:100120000197F1F7939A1F910F9108950F931F93E1
:10013000CF93DF938C01C0E0D0E005C097DF21961C
:10014000C830D10531F0F801EC0FFD1F8081882304
:10015000A9F7DF91CF911F910F910895CF93DF936E
:1001600020E137E2C8ECD0E005C0CE010197F1F7FD
:100170002150304021153105C1F780E690E0D6DFEF
:0A01800020E137E2F2CFF894FFCF40
:0C018A0048656C6C6F20576F726C64004D
:00000001FF
