:1000000019C033C032C031C030C02FC02EC02DC087
:100010002CC02BC02AC029C028C027C026C025C09C
:10002000E9C123C022C021C020C01FC01EC01DC006
:100030001CC01BC011241FBECFEFD4E0DEBFCDBF5C
:1000400011E0A0E0B1E0E2EFFDE002C005900D920A
:10005000AA36B107D9F711E0AAE6B1E001C01D92B6
:10006000AD36B107E1F78ED3C2C6CACF4FE057E233
:1000700024E630E080917A00806480937A00809159
:100080007A0086FDFCCF80917800909179008417EA
:10009000950729F02150304011F0AC01EBCF40E042
:1000A00020E030E080917A00806480937A00809133
:1000B0007A0086FDFCCF8091780090917900280F1E
:1000C000391F4F5F403271F7C90108958F929F9297
:1000D000AF92BF92CF92DF92EF92FF920F931F9356
:1000E000CF93DF93873008F05DC0082F10E0F80150
:1000F000E15FFE4F808185B984B9F801EE5CFE4F67
:10010000E081EE2329F430EEC32E3FE7D32E09C061
:10011000E064E0937C008AEF90E00197F1F7A6DFBE
:100120006C0180E480937C0082EE94E00197F1F70B
:100130009DDFEC0114B815B88FE3C03FD80748F035
:10014000C05FDF43D0936C01C0936B01C051D04CB2
:1001500008C080EF9FE38C1B9D0B90936C018093F4
:100160006B01CC16DD0609F48BC0BE0180E090E087
:10017000E4D4000F111F000F111F0A5E1E4FF8017B
:1001800020813181428153818ED57B018C01CC1A33
:10019000DD0AB60180E090E0D0D49B01AC01C8013B
:1001A000B70177C081E485B984B980937C000AEFF8
:1001B00010E0C8010197F1F759DFEC0182E4809368
:1001C0007C00C8010197F1F751DF4C0180E4809376
:1001D0007C00C8010197F1F749DFA0E0B0E0BC0165
:1001E000CD01ABD45B016C0114B815B820E030EC44
:1001F0004FE756E454D588233CF0C601B50120E012
:1002000030EC4FE756E406C060E070EC8FE796E410
:10021000A601950195D365D470936C0160936B0131
:10022000BE0180E090E089D4A601950189D3209198
:100230002E0130912F014091300150913101E9D3CD
:100240007B018C01B40180E090E077D4A601950198
:1002500077D320912A0130912B0140912C015091AC
:100260002D01D7D39B01AC01C801B7016AD37B0133
:100270008C0120E030E040E050E0C7D3882329F42F
:10028000E0E579EA8BEA6CE407C0C601B501A80194
:100290009701BFD3E62F692F2E2F372F482F562FC8
:1002A000B901CA01DF91CF911F910F91FF90EF909B
:1002B000DF90CF90BF90AF909F908F9008952F9236
:1002C0003F924F925F926F927F928F929F92AF92E6
:1002D000BF92CF92DF92EF92FF920F931F93DF9323
:1002E000CF93CDB7DEB72B970FB6F894DEBF0FBE16
:1002F000CDBF6A837B838C839D8320E82E8386E930
:100300008F8398E19887EBE4E987AA24BB246501F1
:1003100041E0642E712C812C912CF1E0F9834AC0CC
:10032000EA85FB852081318140E050E0C401B301C2
:100330001DD51B012C0103D42A813B814C815D8199
:10034000FFD27B018C0120E030E040E050E05DD343
:1003500088234CF460E070E080E090E0A801970111
:10036000EFD27B018C01C801B7012E813F81488506
:1003700059854BD3882344F4D801C701EE829F836B
:10038000A887B987620151018A859B8502969B8760
:100390008A878956914021F6F981FF5FF983F7300A
:1003A00071F0C401B3012AE030E040E050E0DED457
:1003B0003B014C0189E391E09B878A87B1CFB5016E
:1003C000C6012B960FB6F894DEBF0FBECDBFCF91FE
:1003D000DF911F910F91FF90EF90DF90CF90BF9032
:1003E000AF909F908F907F906F905F904F903F90D5
:1003F0002F9008951F920F920FB60F9211248F9392
:1004000080916A01882331F080916A018150809344
:100410006A0101C0589A8F910F900FBE0F901F90E4
:1004200018952F923F924F925F926F927F928F9288
:100430009F92AF92BF92CF92DF92EF92FF920F9373
:100440001F93DF93CF9300D000D0CDB7DEB75B0111
:100450006C0120E030E040E251E4D7D287FD09C0D2
:10046000EA2D7B2D8C2D6D2D21E030E03A83298300
:100470000DC0C601B50120E030E040E251E413D4E4
:10048000E62F692FAAE0B0E0BA83A9832E2F372F79
:10049000482F562FB901CA0112DF962E872E782ECB
:1004A000692EC601B50120E836E948E15BE4ADD22A
:1004B00088230CF043C1E92CF82C072D162D88E277
:1004C00080936A01B0E4EB16B2E4FB06BFE00B07D1
:1004D000B0E01B07C8F0C801B70120E432E44FE0E8
:1004E00050E063D44901C801B70120E432E44FE091
:1004F00050E05BD420EA36E841E050E056D43C833B
:100500002B830DE4502E40C0E8EEEE16E3E0FE062D
:10051000E0E00E07E0E01E07C8F0C801B70128EED2
:1005200033E040E050E041D44901C801B70128EE72
:1005300033E040E050E039D424E630E040E050E0E1
:1005400034D43C832B831BE4512E1EC029813A8175
:100550002130310531F44701B2E55B2E1C821B824C
:1005600013C0C801B7012AE030E040E050E01DD4DC
:100570004901C801B7012AE030E040E050E015D45D
:100580007C836B83A2E55A2E81D180E262D1340153
:100590008824992422242394F4E6EF2EF12C012DB3
:1005A000112D4424C401B301A8019701FED3322EBA
:1005B000C401B301A8019701F8D3AC01CB01DA0162
:1005C0003C014D01C801B7012AE030E040E050E0B5
:1005D000ECD3C901DA017C018D01332011F4222012
:1005E00021F4832D42D1222402C080E232D14394EF
:1005F00033E04316B9F6852D2CD18B819C81892B54
:1006000019F08B8132D102C080E223D142D1C601E0
:10061000B50120E030E040E251E4F7D188237CF4DA
:10062000C601B50120E030E048EC52E43CD359D299
:10063000562E672E782E892EE5E04E2E21C0C6015B
:10064000B50120E030E048EC52E4DFD188237CF4AF
:10065000C601B50120E030E040E251E424D341D2AC
:10066000562E672E782E892E76E0472E09C0C601B9
:10067000B50137D2562E672E782E892E67E0462E8A
:10068000CC24C39450E4E52E52E4F52E5FE0052F10
:10069000112DDD2422243324A42CBB240894A1088A
:1006A000B108922C421411F48CE2D3D0652D762D32
:1006B000872D982DA801970178D3222329F4CC20E7
:1006C00019F02A143B0464F09D2C939493E09D153B
:1006D00018F0822FCAD002C080E3BBD0CC240CC05B
:1006E000A981BA81119719F0B1E0B91510F480E22F
:1006F000B0D09D2CCC24C3940894211C311CE7E07D
:100700002E163104C1F0652D762D872D982DA80168
:1007100097014BD3562E672E782E892EC801B7012C
:100720002AE030E040E050E040D3C901DA017C012A
:100730008D01D92CB6CF8CE792E90BC080916A016C
:10074000843209F4A9D09FD080E091E0E1D088E91B
:100750009AE30197F1F70F900F900F900F90CF91C0
:10076000DF911F910F91FF90EF90DF90CF90BF909E
:10077000AF909F908F907F906F905F904F903F9041
:100780002F900895DF92EF92FF920F931F93CF93D4
:10079000DF938FE784B917B88FEF8AB91BB883E866
:1007A00080937A0010927B008EE480937C008FE32C
:1007B00080937E0014BC85E085BD81E080936E004F
:1007C00088E280936A0168D0789450DC8D549D4112
:1007D00018F086E091E09CD049DC8D549D41E0F713
:1007E0005BD026EED22E93EDE92E8CEBF82E0CE4A6
:1007F000CFEFDFEF10E011C0812F68DC20916B019B
:1008000030916C01C217D30710F49E0104C0D62E9C
:10081000E72EF82E092F1F5FE901183068F32D2D00
:100820003E2D4F2D502FB901CA01FBDDCFEFDFEF79
:1008300010E0E2CF00005A9A9BB1807F9F70982B06
:100840009BB981E0982F9A95F1F75A988A95F1F71C
:1008500008951F93182FEEDF812F8295807FEADFA6
:1008600080E18A95F1F71F910895805DF2DF089588
:100870005B989AE19A95F1F7ECDF5B9A80E092E061
:100880000197F1F7089581E0F3DF089582E0F0DF4A
:10089000089580ECEDDF08950F931F935B9884E635
:1008A0008A95F1F75A9A88E893E10197F1F780E386
:1008B000C1DF06EA1EE0C8010197F1F780E3BADF65
:1008C000C8010197F1F780E3B5DFC8010197F1F79F
:1008D00088E2BFDF0AEF10E0C8010197F1F788E274
:1008E000B8DFC8010197F1F788E0B3DFC8010197CD
:1008F000F1F78CE0AEDFC8010197F1F786E0A9DFE0
:1009000084EF91E00197F1F75B9A1F910F910895A1
:100910000F931F93CF93DF938C01C0E0D0E005C00D
:1009200098DF2196C830D10531F0F801EC0FFD1F9A
:1009300080818823A9F7DF91CF911F910F910895AE
:100940005058BB27AA270ED070C161D130F066D1B4
:1009500020F031F49F3F11F41EF456C10EF4E095DF
:10096000E7FB4CC1E92F72D180F3BA176207730716
:100970008407950718F071F49EF58AC10EF4E0958E
:100980000B2EBA2FA02D0B01B90190010C01CA0149
:10099000A0011124FF27591B99F0593F50F4503EF4
:1009A00068F11A16F040A22F232F342F4427585FE6
:1009B000F3CF469537952795A795F0405395C9F7FE
:1009C0007EF41F16BA0B620B730B840BBAF09150B6
:1009D000A1F0FF0FBB1F661F771F881FC2F70EC055
:1009E000BA0F621F731F841F48F487957795679528
:1009F000B795F7959E3F08F0B3CF9395880F08F011
:100A00009927EE0F979587950895D4D008F481E043
:100A100008950CD00AC102D140F0F9D030F021F491
:100A20005F3F19F0EBC0511134C1EEC00FD198F304
:100A30009923C9F35523B1F3951B550BBB27AA275F
:100A400062177307840738F09F5F5F4F220F331FD1
:100A5000441FAA1FA9F333D00E2E3AF0E0E830D09D
:100A600091505040E695001CCAF729D0FE2F27D0A0
:100A7000660F771F881FBB1F261737074807AB076E
:100A8000B0E809F0BB0B802DBF01FF2793585F4FE3
:100A90002AF09E3F510568F0B1C0FBC05F3FECF308
:100AA000983EDCF3869577956795B795F7959F5FA8
:100AB000C9F7880F911D9695879597F90895E1E0FC
:100AC000660F771F881FBB1F621773078407BA075B
:100AD00020F0621B730B840BBA0BEE1F88F7E095B6
:100AE0000895BCD088F09F5790F0B92F9927B7513F
:100AF000A0F0D1F0660F771F881F991F1AF0BA95E2
:100B0000C9F712C0B13081F0C3D0B1E00895C0C0C0
:100B1000672F782F8827B85F39F0B93FCCF38695D7
:100B200077956795B395D9F73EF490958095709534
:100B300061957F4F8F4F9F4F0895E89409C097FBB1
:100B40003EF490958095709561957F4F8F4F9F4FA4
:100B50009923A9F0F92F96E9BB279395F6958795E8
:100B600077956795B795F111F8CFFAF4BB0F11F4AB
:100B700060FF1BC06F5F7F4F8F4F9F4F16C0882352
:100B800011F096E911C0772321F09EE8872F762F88
:100B900005C0662371F096E8862F70E060E02AF0C9
:100BA0009A95660F771F881FDAF7880F96958795B5
:100BB00097F90895990F0008550FAA0BE0E8FEEF8A
:100BC00016161706E807F907C0F012161306E40711
:100BD000F50798F0621B730B840B950B39F40A260A
:100BE00061F0232B242B252B21F408950A2609F4E8
:100BF000A140A6958FEF811D811D089597F99F67EC
:100C000080E870E060E008959FEF80EC0895002494
:100C10000A941616170618060906089500240A9461
:100C200012161306140605060895092E0394000CE7
:100C300011F4882352F0BB0F40F4BF2B11F460FF76
:100C400004C06F5F7F4F8F4F9F4F089557FD90589F
:100C5000440F551F59F05F3F71F04795880F97FB80
:100C6000991F61F09F3F79F087950895121613063A
:100C70001406551FF2CF4695F1DF08C01616170669
:100C80001806991FF1CF869571056105089408959E
:100C9000E894BB2766277727CB0197F908958ADF69
:100CA00008F48FEF08950BD0C0CFB1DF28F0B6DF86
:100CB00018F0952309F0A2CFA7CF1124EACFC6DF01
:100CC000A0F3959FD1F3950F50E0551F629FF0015F
:100CD000729FBB27F00DB11D639FAA27F00DB11DB8
:100CE000AA1F649F6627B00DA11D661F829F222741
:100CF000B00DA11D621F739FB00DA11D621F839FC8
:100D0000A00D611D221F749F3327A00D611D231F9D
:100D1000849F600D211D822F762F6A2F11249F57EB
:100D200050408AF0E1F088234AF0EE0FFF1FBB1F0E
:100D3000661F771F881F91505040A9F79E3F5105AD
:100D400070F05CCFA6CF5F3FECF3983EDCF3869566
:100D500077956795B795F795E7959F5FC1F7FE2B58
:100D6000880F911D9695879597F90895629FD001F8
:100D7000739FF001829FE00DF11D649FE00DF11D56
:100D8000929FF00D839FF00D749FF00D659FF00D05
:100D90009927729FB00DE11DF91F639FB00DE11DF2
:100DA000F91FBD01CF0111240895A1E21A2EAA1B3B
:100DB000BB1BFD010DC0AA1FBB1FEE1FFF1FA2170B
:100DC000B307E407F50720F0A21BB30BE40BF50B08
:100DD000661F771F881F991F1A9469F76095709591
:100DE000809590959B01AC01BD01CF010895F894C9
:020DF000FFCF33
:100DF20020202D2D2D004C6F77204261747400202D
:100E02001008040240010047064A0022A148009847
:100E120037470000AF4500004D4400001643000074
:100E2200FA42000005040302010A000B000C000D47
:100E3200000F00100012001400160018001B001E04
:100E4200002100240027002B002F00330038003E31
:0A0E52000044004B0052005B00005A
:00000001FF
